{
  "_format": "hh-sol-artifact-1",
  "contractName": "Escrow",
  "sourceName": "contracts/Escrow.sol",
  "abi": [
    {
      "inputs": [],
      "stateMutability": "nonpayable",
      "type": "constructor"
    },
    {
      "inputs": [
        {
          "internalType": "uint256",
          "name": "itemId",
          "type": "uint256"
        },
        {
          "internalType": "bool",
          "name": "provided",
          "type": "bool"
        }
      ],
      "name": "confirmDelivery",
      "outputs": [
        {
          "internalType": "bool",
          "name": "",
          "type": "bool"
        }
      ],
      "stateMutability": "nonpayable",
      "type": "function"
    },
    {
      "inputs": [
        {
          "internalType": "string",
          "name": "purpose",
          "type": "string"
        }
      ],
      "name": "createItem",
      "outputs": [
        {
          "internalType": "bool",
          "name": "",
          "type": "bool"
        }
      ],
      "stateMutability": "payable",
      "type": "function"
    },
    {
      "inputs": [],
      "name": "escAcc",
      "outputs": [
        {
          "internalType": "address",
          "name": "",
          "type": "address"
        }
      ],
      "stateMutability": "view",
      "type": "function"
    },
    {
      "inputs": [],
      "name": "getItems",
      "outputs": [
        {
          "components": [
            {
              "internalType": "uint256",
              "name": "itemId",
              "type": "uint256"
            },
            {
              "internalType": "string",
              "name": "purpose",
              "type": "string"
            },
            {
              "internalType": "uint256",
              "name": "amount",
              "type": "uint256"
            },
            {
              "internalType": "uint256",
              "name": "timestamp",
              "type": "uint256"
            },
            {
              "internalType": "address",
              "name": "owner",
              "type": "address"
            },
            {
              "internalType": "address",
              "name": "provider",
              "type": "address"
            },
            {
              "internalType": "enum Escrow.Status",
              "name": "status",
              "type": "uint8"
            },
            {
              "internalType": "bool",
              "name": "provided",
              "type": "bool"
            },
            {
              "internalType": "bool",
              "name": "confirmed",
              "type": "bool"
            }
          ],
          "internalType": "struct Escrow.ItemStruct[]",
          "name": "props",
          "type": "tuple[]"
        }
      ],
      "stateMutability": "view",
      "type": "function"
    },
    {
      "inputs": [
        {
          "internalType": "uint256",
          "name": "",
          "type": "uint256"
        }
      ],
      "name": "ownerOf",
      "outputs": [
        {
          "internalType": "address",
          "name": "",
          "type": "address"
        }
      ],
      "stateMutability": "view",
      "type": "function"
    },
    {
      "inputs": [
        {
          "internalType": "uint256",
          "name": "itemId",
          "type": "uint256"
        }
      ],
      "name": "performDelievery",
      "outputs": [
        {
          "internalType": "bool",
          "name": "",
          "type": "bool"
        }
      ],
      "stateMutability": "nonpayable",
      "type": "function"
    },
    {
      "inputs": [
        {
          "internalType": "uint256",
          "name": "itemId",
          "type": "uint256"
        },
        {
          "internalType": "address",
          "name": "provider",
          "type": "address"
        }
      ],
      "name": "provideItem",
      "outputs": [
        {
          "internalType": "bool",
          "name": "",
          "type": "bool"
        }
      ],
      "stateMutability": "nonpayable",
      "type": "function"
    },
    {
      "inputs": [],
      "name": "totalItems",
      "outputs": [
        {
          "internalType": "uint256",
          "name": "",
          "type": "uint256"
        }
      ],
      "stateMutability": "view",
      "type": "function"
    }
  ],
  "bytecode": "0x6080604052600060025534801561001557600080fd5b50600160008190555033600160006101000a81548173ffffffffffffffffffffffffffffffffffffffff021916908373ffffffffffffffffffffffffffffffffffffffff160217905550611f6b8061006e6000396000f3fe60806040526004361061007b5760003560e01c8063618f0ea71161004e578063618f0ea7146101435780636352211e1461016e5780637216f123146101ab578063dd6ecd71146101e85761007b565b806304ef0781146100805780632799276d146100bd5780633d54eebb146100e8578063410d59cc14610118575b600080fd5b34801561008c57600080fd5b506100a760048036038101906100a291906110ae565b610225565b6040516100b491906110fd565b60405180910390f35b3480156100c957600080fd5b506100d2610527565b6040516100df9190611127565b60405180910390f35b61010260048036038101906100fd91906111a7565b61052d565b60405161010f91906110fd565b60405180910390f35b34801561012457600080fd5b5061012d6108e9565b60405161013a91906114e1565b60405180910390f35b34801561014f57600080fd5b50610158610b71565b6040516101659190611512565b60405180910390f35b34801561017a57600080fd5b506101956004803603810190610190919061152d565b610b97565b6040516101a29190611512565b60405180910390f35b3480156101b757600080fd5b506101d260048036038101906101cd919061152d565b610bca565b6040516101df91906110fd565b60405180910390f35b3480156101f457600080fd5b5061020f600480360381019061020a9190611586565b610daf565b60405161021c91906110fd565b60405180910390f35b60006003600084815260200190815260200160002060040160009054906101000a900473ffffffffffffffffffffffffffffffffffffffff1673ffffffffffffffffffffffffffffffffffffffff163373ffffffffffffffffffffffffffffffffffffffff16146102cb576040517f08c379a00000000000000000000000000000000000000000000000000000000081526004016102c290611623565b60405180910390fd5b6003600084815260200190815260200160002060050160159054906101000a900460ff1661032e576040517f08c379a00000000000000000000000000000000000000000000000000000000081526004016103259061168f565b60405180910390fd5b60048081111561034157610340611300565b5b6003600085815260200190815260200160002060050160149054906101000a900460ff16600481111561037757610376611300565b5b036103b7576040517f08c379a00000000000000000000000000000000000000000000000000000000081526004016103ae90611721565b60405180910390fd5b81156104865760016003600085815260200190815260200160002060050160166101000a81548160ff0219169083151502179055506104426003600085815260200190815260200160002060050160009054906101000a900473ffffffffffffffffffffffffffffffffffffffff166003600086815260200190815260200160002060020154610ef0565b50600380600085815260200190815260200160002060050160146101000a81548160ff0219169083600481111561047c5761047b611300565b5b021790555061051d565b6104dc6003600085815260200190815260200160002060040160009054906101000a900473ffffffffffffffffffffffffffffffffffffffff166003600086815260200190815260200160002060020154610ef0565b5060046003600085815260200190815260200160002060050160146101000a81548160ff0219169083600481111561051757610516611300565b5b02179055505b6001905092915050565b60025481565b6000808383905011610574576040517f08c379a000000000000000000000000000000000000000000000000000000000815260040161056b9061178d565b60405180910390fd5b600034116105b7576040517f08c379a00000000000000000000000000000000000000000000000000000000081526004016105ae906117f9565b60405180910390fd5b6000600260008154809291906105cc90611848565b91905055905060006003600083815260200190815260200160002090508181600001819055508484826001019182610605929190611ad6565b50348160020181905550428160030181905550338160040160006101000a81548173ffffffffffffffffffffffffffffffffffffffff021916908373ffffffffffffffffffffffffffffffffffffffff16021790555060008160050160146101000a81548160ff0219169083600481111561068357610682611300565b5b0217905550600460003373ffffffffffffffffffffffffffffffffffffffff1673ffffffffffffffffffffffffffffffffffffffff168152602001908152602001600020819080600181540180825580915050600190039060005260206000209060060201600090919091909150600082015481600001556001820181600101908161070f9190611bbc565b5060028201548160020155600382015481600301556004820160009054906101000a900473ffffffffffffffffffffffffffffffffffffffff168160040160006101000a81548173ffffffffffffffffffffffffffffffffffffffff021916908373ffffffffffffffffffffffffffffffffffffffff1602179055506005820160009054906101000a900473ffffffffffffffffffffffffffffffffffffffff168160050160006101000a81548173ffffffffffffffffffffffffffffffffffffffff021916908373ffffffffffffffffffffffffffffffffffffffff1602179055506005820160149054906101000a900460ff168160050160146101000a81548160ff0219169083600481111561082a57610829611300565b5b02179055506005820160159054906101000a900460ff168160050160156101000a81548160ff0219169083151502179055506005820160169054906101000a900460ff168160050160166101000a81548160ff0219169083151502179055505050336005600084815260200190815260200160002060006101000a81548173ffffffffffffffffffffffffffffffffffffffff021916908373ffffffffffffffffffffffffffffffffffffffff16021790555060019250505092915050565b606060025467ffffffffffffffff8111156109075761090661189b565b5b60405190808252806020026020018201604052801561094057816020015b61092d610fa8565b8152602001906001900390816109255790505b50905060005b600254811015610b6d57600360008281526020019081526020016000206040518061012001604052908160008201548152602001600182018054610989906118f9565b80601f01602080910402602001604051908101604052809291908181526020018280546109b5906118f9565b8015610a025780601f106109d757610100808354040283529160200191610a02565b820191906000526020600020905b8154815290600101906020018083116109e557829003601f168201915b5050505050815260200160028201548152602001600382015481526020016004820160009054906101000a900473ffffffffffffffffffffffffffffffffffffffff1673ffffffffffffffffffffffffffffffffffffffff1673ffffffffffffffffffffffffffffffffffffffff1681526020016005820160009054906101000a900473ffffffffffffffffffffffffffffffffffffffff1673ffffffffffffffffffffffffffffffffffffffff1673ffffffffffffffffffffffffffffffffffffffff1681526020016005820160149054906101000a900460ff166004811115610af057610aef611300565b5b6004811115610b0257610b01611300565b5b81526020016005820160159054906101000a900460ff161515151581526020016005820160169054906101000a900460ff161515151581525050828281518110610b4f57610b4e611ca4565b5b60200260200101819052508080610b6590611848565b915050610946565b5090565b600160009054906101000a900473ffffffffffffffffffffffffffffffffffffffff1681565b60056020528060005260406000206000915054906101000a900473ffffffffffffffffffffffffffffffffffffffff1681565b60006003600083815260200190815260200160002060050160009054906101000a900473ffffffffffffffffffffffffffffffffffffffff1673ffffffffffffffffffffffffffffffffffffffff163373ffffffffffffffffffffffffffffffffffffffff1614610c70576040517f08c379a0000000000000000000000000000000000000000000000000000000008152600401610c6790611d1f565b60405180910390fd5b6003600083815260200190815260200160002060050160159054906101000a900460ff1615610cd4576040517f08c379a0000000000000000000000000000000000000000000000000000000008152600401610ccb90611d8b565b60405180910390fd5b6003600083815260200190815260200160002060050160169054906101000a900460ff1615610d38576040517f08c379a0000000000000000000000000000000000000000000000000000000008152600401610d2f90611df7565b60405180910390fd5b60016003600084815260200190815260200160002060050160156101000a81548160ff02191690831515021790555060026003600084815260200190815260200160002060050160146101000a81548160ff02191690836004811115610da157610da0611300565b5b021790555060019050919050565b60006005600084815260200190815260200160002060009054906101000a900473ffffffffffffffffffffffffffffffffffffffff1673ffffffffffffffffffffffffffffffffffffffff163373ffffffffffffffffffffffffffffffffffffffff1603610e52576040517f08c379a0000000000000000000000000000000000000000000000000000000008152600401610e4990611e63565b60405180910390fd5b60016003600085815260200190815260200160002060050160146101000a81548160ff02191690836004811115610e8c57610e8b611300565b5b0217905550816003600085815260200190815260200160002060050160006101000a81548173ffffffffffffffffffffffffffffffffffffffff021916908373ffffffffffffffffffffffffffffffffffffffff1602179055506001905092915050565b6000808373ffffffffffffffffffffffffffffffffffffffff1683604051610f1790611eb4565b60006040518083038185875af1925050503d8060008114610f54576040519150601f19603f3d011682016040523d82523d6000602084013e610f59565b606091505b5050905080610f9d576040517f08c379a0000000000000000000000000000000000000000000000000000000008152600401610f9490611f15565b60405180910390fd5b600191505092915050565b60405180610120016040528060008152602001606081526020016000815260200160008152602001600073ffffffffffffffffffffffffffffffffffffffff168152602001600073ffffffffffffffffffffffffffffffffffffffff1681526020016000600481111561101e5761101d611300565b5b81526020016000151581526020016000151581525090565b600080fd5b600080fd5b6000819050919050565b61105381611040565b811461105e57600080fd5b50565b6000813590506110708161104a565b92915050565b60008115159050919050565b61108b81611076565b811461109657600080fd5b50565b6000813590506110a881611082565b92915050565b600080604083850312156110c5576110c4611036565b5b60006110d385828601611061565b92505060206110e485828601611099565b9150509250929050565b6110f781611076565b82525050565b600060208201905061111260008301846110ee565b92915050565b61112181611040565b82525050565b600060208201905061113c6000830184611118565b92915050565b600080fd5b600080fd5b600080fd5b60008083601f84011261116757611166611142565b5b8235905067ffffffffffffffff81111561118457611183611147565b5b6020830191508360018202830111156111a05761119f61114c565b5b9250929050565b600080602083850312156111be576111bd611036565b5b600083013567ffffffffffffffff8111156111dc576111db61103b565b5b6111e885828601611151565b92509250509250929050565b600081519050919050565b600082825260208201905092915050565b6000819050602082019050919050565b61122981611040565b82525050565b600081519050919050565b600082825260208201905092915050565b60005b8381101561126957808201518184015260208101905061124e565b60008484015250505050565b6000601f19601f8301169050919050565b60006112918261122f565b61129b818561123a565b93506112ab81856020860161124b565b6112b481611275565b840191505092915050565b600073ffffffffffffffffffffffffffffffffffffffff82169050919050565b60006112ea826112bf565b9050919050565b6112fa816112df565b82525050565b7f4e487b7100000000000000000000000000000000000000000000000000000000600052602160045260246000fd5b600581106113405761133f611300565b5b50565b60008190506113518261132f565b919050565b600061136182611343565b9050919050565b61137181611356565b82525050565b61138081611076565b82525050565b60006101208301600083015161139f6000860182611220565b50602083015184820360208601526113b78282611286565b91505060408301516113cc6040860182611220565b5060608301516113df6060860182611220565b5060808301516113f260808601826112f1565b5060a083015161140560a08601826112f1565b5060c083015161141860c0860182611368565b5060e083015161142b60e0860182611377565b50610100830151611440610100860182611377565b508091505092915050565b60006114578383611386565b905092915050565b6000602082019050919050565b6000611477826111f4565b61148181856111ff565b93508360208202850161149385611210565b8060005b858110156114cf57848403895281516114b0858261144b565b94506114bb8361145f565b925060208a01995050600181019050611497565b50829750879550505050505092915050565b600060208201905081810360008301526114fb818461146c565b905092915050565b61150c816112df565b82525050565b60006020820190506115276000830184611503565b92915050565b60006020828403121561154357611542611036565b5b600061155184828501611061565b91505092915050565b611563816112df565b811461156e57600080fd5b50565b6000813590506115808161155a565b92915050565b6000806040838503121561159d5761159c611036565b5b60006115ab85828601611061565b92505060206115bc85828601611571565b9150509250929050565b600082825260208201905092915050565b7f4f6e6c79206f776e657220616c6c6f7765640000000000000000000000000000600082015250565b600061160d6012836115c6565b9150611618826115d7565b602082019050919050565b6000602082019050818103600083015261163c81611600565b9050919050565b7f53657276696365206e6f742070726f7669646564000000000000000000000000600082015250565b60006116796014836115c6565b915061168482611643565b602082019050919050565b600060208201905081810360008301526116a88161166c565b9050919050565b7f416c726561647920726566756e6465642c206372656174652061206e6577204960008201527f74656d0000000000000000000000000000000000000000000000000000000000602082015250565b600061170b6023836115c6565b9150611716826116af565b604082019050919050565b6000602082019050818103600083015261173a816116fe565b9050919050565b7f507572706f73652063616e6e6f7420626520656d707479000000000000000000600082015250565b60006117776017836115c6565b915061178282611741565b602082019050919050565b600060208201905081810360008301526117a68161176a565b9050919050565b7f4974656d2063616e6e6f74206265207a65726f20657468657273000000000000600082015250565b60006117e3601a836115c6565b91506117ee826117ad565b602082019050919050565b60006020820190508181036000830152611812816117d6565b9050919050565b7f4e487b7100000000000000000000000000000000000000000000000000000000600052601160045260246000fd5b600061185382611040565b91507fffffffffffffffffffffffffffffffffffffffffffffffffffffffffffffffff820361188557611884611819565b5b600182019050919050565b600082905092915050565b7f4e487b7100000000000000000000000000000000000000000000000000000000600052604160045260246000fd5b7f4e487b7100000000000000000000000000000000000000000000000000000000600052602260045260246000fd5b6000600282049050600182168061191157607f821691505b602082108103611924576119236118ca565b5b50919050565b60008190508160005260206000209050919050565b60006020601f8301049050919050565b600082821b905092915050565b60006008830261198c7fffffffffffffffffffffffffffffffffffffffffffffffffffffffffffffffff8261194f565b611996868361194f565b95508019841693508086168417925050509392505050565b6000819050919050565b60006119d36119ce6119c984611040565b6119ae565b611040565b9050919050565b6000819050919050565b6119ed836119b8565b611a016119f9826119da565b84845461195c565b825550505050565b600090565b611a16611a09565b611a218184846119e4565b505050565b5b81811015611a4557611a3a600082611a0e565b600181019050611a27565b5050565b601f821115611a8a57611a5b8161192a565b611a648461193f565b81016020851015611a73578190505b611a87611a7f8561193f565b830182611a26565b50505b505050565b600082821c905092915050565b6000611aad60001984600802611a8f565b1980831691505092915050565b6000611ac68383611a9c565b9150826002028217905092915050565b611ae08383611890565b67ffffffffffffffff811115611af957611af861189b565b5b611b0382546118f9565b611b0e828285611a49565b6000601f831160018114611b3d5760008415611b2b578287013590505b611b358582611aba565b865550611b9d565b601f198416611b4b8661192a565b60005b82811015611b7357848901358255600182019150602085019450602081019050611b4e565b86831015611b905784890135611b8c601f891682611a9c565b8355505b6001600288020188555050505b50505050505050565b600081549050611bb5816118f9565b9050919050565b818103611bca575050611ca2565b611bd382611ba6565b67ffffffffffffffff811115611bec57611beb61189b565b5b611bf682546118f9565b611c01828285611a49565b6000601f831160018114611c305760008415611c1e578287015490505b611c288582611aba565b865550611c9b565b601f198416611c3e8761192a565b9650611c498661192a565b60005b82811015611c7157848901548255600182019150600185019450602081019050611c4c565b86831015611c8e5784890154611c8a601f891682611a9c565b8355505b6001600288020188555050505b5050505050505b565b7f4e487b7100000000000000000000000000000000000000000000000000000000600052603260045260246000fd5b7f53657276696365206e6f74206177617264656420746f20796f75000000000000600082015250565b6000611d09601a836115c6565b9150611d1482611cd3565b602082019050919050565b60006020820190508181036000830152611d3881611cfc565b9050919050565b7f5365727669636520616c72656164792070726f76696465640000000000000000600082015250565b6000611d756018836115c6565b9150611d8082611d3f565b602082019050919050565b60006020820190508181036000830152611da481611d68565b9050919050565b7f5365727669636520616c726561647920636f6e6669726d656400000000000000600082015250565b6000611de16019836115c6565b9150611dec82611dab565b602082019050919050565b60006020820190508181036000830152611e1081611dd4565b9050919050565b7f4f776e6572206e6f7420616c6c6f776564000000000000000000000000000000600082015250565b6000611e4d6011836115c6565b9150611e5882611e17565b602082019050919050565b60006020820190508181036000830152611e7c81611e40565b9050919050565b600081905092915050565b50565b6000611e9e600083611e83565b9150611ea982611e8e565b600082019050919050565b6000611ebf82611e91565b9150819050919050565b7f5061796d656e74206661696c6564000000000000000000000000000000000000600082015250565b6000611eff600e836115c6565b9150611f0a82611ec9565b602082019050919050565b60006020820190508181036000830152611f2e81611ef2565b905091905056fea26469706673582212207e5fd05259e61f3ef2af68ce0e26ae251e9d757dab941207ee628f17e4ba186164736f6c63430008130033",
  "linkReferences": {},
  "deployedLinkReferences": {}
}